:0400000072EF3FF06C
:107E1200336E32C02CF02D6A3350CCEC3FF012009E
:107E22002C6EACAC03D0AC9034B2AC802CC0ADFFA5
:107E32001200F20E3416ABAC03D03490ABB03480E7
:107E4200ABB43484ABB23486AECF2CF02C501200DB
:107E52000A0E11EC3FF00D0E11EC3FF030C02EF087
:107E62002FC02DF049EC3FF0ACB21200FDD708D084
:107E72002CC0D9FF2DC0DAFF200EDF6E2C4A2D2A2E
:107E82002CC0D9FF2DC0DAFFDF50D8B41200F0D7D2
:107E9200ACA2FED72DC0D9FF2EC0DAFFDF5011EC05
:107EA2003FF02DC0D9FF2EC0DAFF2D4A2E2ADF5017
:067EB200D8B41200EDD768
:107EB9002C1F0D456E746572206120737472696E92
:107EC9006720666F6C6C6F776564206279207265D4
:107ED9007475726E206B6579000000366A356A34F4
:107EE9006AB90EF66E7E0EF76E000EF86E00EE01A0
:107EF900F010EE2BF00900F5CFEEFFE550E150FA56
:107F0900E10001A8EF3FF0000E2F6E0A0E11EC3FC1
:107F1900F00D0E11EC3FF09EAAFED71AEC3FF02FA0
:107F29006E2F500D0AD8B40ED02DC0D9FF2EC0DA4D
:107F3900FF2FC0DFFF2F5011EC3FF0ACA2FED72D71
:107F49004A2E2AE9D7120002C032F0015009EC3F4B
:107F5900F0000E306E030E2F6E29EC3FF0000E2D4F
:107F69006E350E2C6E38EC3FF0000E2E6E350E2D50
:107F79006E88EC3FF0000E306E350E2F6E29EC3F07
:107F8900F0000E2D6E350E2C6E38EC3FF0E1D73136
:107F99006E000EAC6E000EAB6E31B0AC8831A20231
:107FA900D0AC8CAB8C31B4AC8E31A602D0AB88018D
:107FB900D0AB8A31B8AC849E9831BAAB8631AC0269
:107FC900D09D8A01D09D9A9E9A31AE02D09D88019A
:107FD900D09D982CC0AFFF2DC02EF02EC02FF030B1
:107FE9006A2F50B06EAC8AAB8E949C948EACB8ACB0
:087FF900BE01D0948C1200FFC0
:020000040020DA
:08000000FFFFFFFFFFFFFFFF00
:020000040030CA
:0E000000040C191EFF8081FF0FC00FE00F409F
:00000001FF
