:020000040000FA
:0600000013EF02F01200F4
:0A0006000100440400006000000047
:040010002D000000BF
:0C001400D9CFE6FFE1CFD9FFFD0EDBCF16
:10002000E6FFE66AFE0EDBCFE6FF62EC01F0E5528A
:10003000E552E552E552E7CFD9FF12009EAAFED75E
:10004000CDEC01F000D01200D9CFE6FFE1CFD9FF0F
:100050000A0EE66EECEC01F0E5520D0EE66EECECED
:1000600001F0E552FD0EDBCFE6FFFE0EDBCFE6FF33
:10007000A7EC01F0E552E552ACA2FED7E552E7CF7E
:10008000D9FF1200D9CFE6FFE1CFD9FFE652DF6AF0
:100090000A0EE66EECEC01F0E5520D0EE66EECECAD
:1000A00001F0E5529EAAFED7CDEC01F0DF6E0D0EF9
:1000B000DF5C14E0FD0EDBCFE9FFFE0EDBCFEAFFD5
:1000C000DFCFEFFFDFCFE6FFECEC01F0E552ACA2B3
:1000D000FED7FD0EDB2AFE0E03E301D002D0DB2AA1
:1000E000E1D7E552E552E7CFD9FF1200D9CFE6FFBD
:1000F000E1CFD9FFFE0EDBCFE6FFECEC01F0E552DD
:10010000ACA2FED7E552E7CFD9FF1200D9CFE6FF68
:10011000E1CFD9FF020EE1260D0EE66EE7DFE552D4
:100120000A0EE66EE3DFE552DF6AFC0EDB50DF5CB1
:100130001FE29EAAFED7CDEC01F0E76E010EE7CFDD
:10014000DBFFFD0EDBCFE9FFFE0EDBCFEAFF010E8A
:10015000DBCFEFFFDBCFE6FFECEC01F0E552ACA22A
:10016000FED7FD0EDB2AFE0E01E3DB2ADF2ADDD7F8
:10017000020EE15C02E2E16AE552E16EE552E7CF90
:04018000D9FF120091
:0C018400D9CFE6FFE1CFD9FFFD0EDBCFA5
:10019000E9FFFE0EDBCFEAFFEF500EE0FD0EDBCFF6
:1001A000E9FFFE0EDBCFEAFF200EEF6EFD0EDB2A2D
:1001B000FE0E01E3DB2AEAD7E552E7CFD9FF1200B2
:1001C0008CC0E6FF8BC0E6FF0AEC00F0E552E5527A
:1001D000600EE66E000EE66E24EC00F0E552E5528D
:1001E000890EE66E000EE66ECDDFE552E552890E11
:1001F000E66E000EE66E42EC00F0E552E552890E26
:10020000E66E000EE66E24EC00F0E552E552890E33
:10021000E66E000EE66EB6DFE552E552D9D7F36A18
:06022000F46A00D0120098
:0A022600060EF66E000EF76E000ED5
:10023000F86E00010900F550926F0900F550936FB8
:1002400003E1926701D03DD00900F5508D6F0900A0
:10025000F5508E6F0900F5508F6F09000900F550B9
:10026000E96E0900F550EA6E090009000900F55031
:10027000906F0900F550916F09000900F6CF94F0D6
:10028000F7CF95F0F8CF96F08DC0F6FF8EC0F7FF50
:100290008FC0F8FF0001905302E1915307E009007D
:1002A000F550EE6E9007F8E29107F9D794C0F6FF8B
:1002B00095C0F7FF96C0F8FF00019207000E935B10
:0402C000BFD7120092
:0C02C400D9CFE6FFDACFE6FFE1CFD9FF8B
:1002D000E2CFDAFFAC6AAB6AFD0EDBB0AC88DBA222
:1002E00002D0AC8CAB8CDBB4AC8EDBA602D0AB887E
:1002F00001D0AB8ADBB8AC849E98DBBAAB86DBACB2
:1003000002D09D8A01D09D9A9E9ADBAE02D09D8834
:1003100001D09D98FB0EDB50AF6EFB0EFC0EDBCFC9
:1003200003F003C002F0036A0250B06EAC8AAB8ED9
:10033000949C948EAC50100B04E0AC50800B01E107
:0E034000948CE552E5CFDAFFE7CFD9FF12002B
:02034E00D9CF05
:10035000E6FFDACFE6FFE1CFD9FFE2CFDAFFACA2CA
:10036000FED7FC0EDBCFE9FFFD0EDBCFEAFFEF503F
:10037000E66EECEC01F0E552FC0EDBCFE9FFDB2A88
:10038000FD0EDBCFEAFF01E3DB2AEF50E8E1E552A7
:0A039000E5CFDAFFE7CFD9FF120036
:06039A00D9CFE6FFDACF27
:1003A000E6FFE1CFD9FFE2CFDAFFE652F20E00011D
:1003B0009717ABAC03D09791ABB09781ABB497854F
:1003C000ABB29787AE50DF6EDF50E552E552E5CF16
:0803D000DAFFE7CFD9FF1200AC
:0803D800D9CFE6FFDACFE6FF02
:1003E000E1CFD9FFE2CFDAFFACAC04D0AC90000192
:1003F00097B3AC80FD0EDB50AD6EE552E5CFDAFF72
:06040000E7CFD9FF120056
:0A040600000EF36E00EE00F0080E89
:1004100001D81200EA6002D0EE6AFCD7F350E9601E
:060420001200EE6AFCD799
:0A04260013EE00F023EE00F0F86A78
:10043000019C13EC01F021EC02F0E0EC00F0FBD7A2
:020440001200A8
:020442001200A6
:0C0444000D456E746572206120737472A7
:10045000696E6720666F6C6C6F77656420627920C7
:1004600072657475726E206B657900000000002C57
:010470001F6C
:020000040030CA
:010001000CF2
:0100020019E4
:010003001EDE
:010005008179
:010006008079
:010008000FE8
:00000001FF
