:0400000074EF3FF06A
:107E0C002EC02BF02FC02CF02D6AD2EC3FF01200BC
:107E1C00ACAC03D0AC9031B2AC802BC0ADFF120037
:107E2C00F20E3116ABAC03D03190ABB03180ABB4A9
:107E3C003184ABB23186AECF2BF02B50120008D070
:107E4C002BC0D9FF2CC0DAFF200EDF6E2B4A2C2A58
:107E5C002BC0D9FF2CC0DAFFDF50D8B41200F0D7FA
:107E6C00ACA2FED72CC0D9FF2DC0DAFFDF502B6E91
:107E7C000EEC3FF02CC0D9FF2DC0DAFF2C4A2D2A76
:107E8C00DF50D8B41200ECD7306E0A0E2B6E305087
:107E9C000EEC3FF0306E0D0E2B6E30500EEC3FF0B2
:107EAC002EC02CF02FC02DF036EC3FF0ACB21200EF
:107EBC00FDD72C1F0D456E74657220612073747292
:107ECC00696E6720666F6C6C6F77656420627920D1
:107EDC0072657475726E206B65790000336A326A54
:107EEC00316ABE0EF66E7E0EF76E000EF86E00EE68
:107EFC0001F010EE2AF00900F5CFEEFFE550E1504D
:107F0C00FAE100018AEF3FF001C02EF002C02FF021
:107F1C0006EC3FF0000E2F6E030E2E6E4AEC3FF077
:107F2C00000E2C6E320E2B6E25EC3FF0000E2D6EDB
:107F3C00320E2C6EA9EC3FF0000E2F6E320E2E6E10
:107F4C004AEC3FF0E7D72E6E000E2F6E2E502E6EA1
:107F5C000A0E2B6E2E500EEC3FF02E6E0D0E2B6E6D
:107F6C002E500EEC3FF09EAAFED716EC3FF02F6E73
:107F7C002F500D0AD8B40FD02CC0D9FF2DC0DAFF6A
:107F8C002FC0DFFF2FC02BF00EEC3FF0ACA2FED7C2
:107F9C002C4A2D2AE8D71200000EAC6E000EAB6EE8
:107FAC002BB0AC882BA202D0AC8CAB8C2BB4AC8E8F
:107FBC002BA602D0AB8801D0AB8A2BB8AC849E9890
:107FCC002BBAAB862BAC02D09D8A01D09D9A9E9A7F
:107FDC002BAE02D09D8801D09D982CC0AFFF2D50A8
:107FEC00B06EAC8AAB8E949C948EACB8ACBE01D007
:047FFC00948C12004F
:020000040020DA
:08000000FFFFFFFFFFFFFFFF00
:020000040030CA
:0E000000040C191EFF8081FF0FC00FE00F409F
:00000001FF
