:020000040000FA
:0600000095EF02F0120072
:0A00060001005E0500006A00000022
:0400100002000000EA
:0C001400D9CFE6FFE1CFD9FFFD0EDBCF16
:10002000E6FFE66AFE0EDBCFE6FFA5EC01F0E55247
:10003000E552E552E552E7CFD9FF12009EAAFED75E
:100040003FEC02F000D01200D9CFE6FFE1CFD9FF9C
:10005000FD0EDBCFE6FFFE0EDBCFE6FF19EC02F074
:10006000E552E552ACA2FED7E552E7CFD9FF120028
:10007000D9CFE6FFE1CFD9FF9EAAFED7FC0EDBCF9A
:10008000E6FFFD0EDBCFE6FFFE0EDBCFE6FFEAEC80
:1000900001F0E552E552E552E552E7CFD9FF1200F3
:1000A000D9CFE6FFE1CFD9FFFE0EDBCFE6FF5EEC56
:1000B00002F0E552ACA2FED7E552E7CFD9FF12001D
:1000C000D9CFE6FFE1CFD9FF020EE1260D0EE66E95
:1000D000E7DFE5520A0EE66EE3DFE552DF6AFC0E6B
:1000E000DB50DF5C1FE29EAAFED73FEC02F0E76E1A
:1000F000010EE7CFDBFFFD0EDBCFE9FFFE0EDBCF0E
:10010000EAFF010EDBCFEFFFDBCFE6FF5EEC02F094
:10011000E552ACA2FED7FD0EDB2AFE0E01E3DB2A80
:10012000DF2ADDD7020EE15C02E2E16AE552E16E10
:08013000E552E7CFD9FF1200F0
:08013800D9CFE6FFE1CFD9FFAA
:10014000E652DF6A0A0EDF5C07E2320EE66EA3ECCF
:1001500002F0E552DF2AF6D7E552E552E7CFD9FFA4
:1001600012004B0EE66E75EC02F0E55200D0120064
:10017000D9CFE6FFE1CFD9FFE652DF6A140EDF5C8C
:1001800007E2190EE66E75EC02F0E552DF2AF6D7AB
:1001900000D0E552E552E7CFD9FF1200D9CFE6FFF4
:1001A000E1CFD9FFE652DF6AFE0EDB50D880DF5484
:1001B00007E3050EE66E75EC02F0E552DF2AF4D790
:1001C00000D0E552E552E7CFD9FF1200D9CFE6FFC4
:1001D000E1CFD9FF020EE126DF6AFE0EDB50DF5CC5
:1001E00013E2010EDB6A0A0EF36E010EDBCFF4FFA1
:1001F000F350F45C07E2640EE66ED0DFE552010EC8
:10020000DB2AF1D7DF2AE9D7020EE15C02E2E16ADC
:0C021000E552E16EE552E7CFD9FF120085
:04021C00060EF66E66
:10022000000EF76E000EF86E00010900F550656FC4
:100230000900F550666F03E1656701D03DD0090004
:10024000F550606F0900F550616F0900F550626F5D
:1002500009000900F550E96E0900F550EA6E090041
:1002600009000900F550636F0900F550646F09003B
:100270000900F6CF67F0F7CF68F0F8CF69F060C0FB
:10028000F6FF61C0F7FF62C0F8FF0001635302E1AF
:10029000645307E00900F550EE6E6307F8E2640767
:1002A000F9D767C0F6FF68C0F7FF69C0F8FF000123
:0A02B0006507000E665BBFD7120061
:0602BA00D9CFE6FFE1CF01
:1002C000D9FFE652410EDF6E92806BC0E6FF6AC036
:1002D000E6FF0AEC00F0E552E5520A0EE66E50EC3D
:1002E00000F0E5520D0EE66E50EC00F0E552DF50E6
:1002F000DF2AE66E50EC00F0E552C80EE66ECEEC5A
:1003000000F0E5525B0EDF5CF2E1200EE66E50EC91
:1003100000F0E552610EDF6EDF50DF2AE66E50EC32
:1003200000F0E552C80EE66ECEEC00F0E5527B0E12
:10033000DF5CF2E1410EDF6ED0D7F36AF46A00D0E1
:0A034000E552E552E7CFD9FF1200A5
:06034A00D9CFE6FFDACF77
:10035000E6FFE1CFD9FFE2CFDAFFAC6AAB6AFD0E70
:10036000DBB0AC88DBA202D0AC8CAB8CDBB4AC8E47
:10037000DBA602D0AB8801D0AB8ADBB8AC849E98F8
:10038000DBBAAB86DBAC02D09D8A01D09D9A9E9AE7
:10039000DBAE02D09D8801D09D98FB0EDB50AF6E86
:1003A000FB0EFC0EDBCF03F003C002F0036A025029
:1003B000B06EAC8AAB8E949C948EAC50100B04E063
:1003C000AC50800B01E1948CE552E5CFDAFFE7CF2A
:0403D000D9FF12003F
:0C03D400D9CFE6FFDACFE6FFE1CFD9FF7A
:1003E000E2CFDAFFE652E652DF6AFB0EDB50DF5C5B
:1003F00018E29EAAFED73FEC02F0E76E010EE7CFAF
:10040000DBFFFC0EDBCFE9FFFD0EDBCFEAFF010EC9
:10041000DBCFEFFFFC0EDB2AFD0E01E3DB2ADF2A38
:10042000E4D7E552E552E552E5CFDAFFE7CFD9FF51
:020430001200B8
:0E043200D9CFE6FFDACFE6FFE1CFD9FFE2CF68
:10044000DAFFACA2FED7FC0EDBCFE9FFFD0EDBCF5F
:10045000EAFFEF50E66E5EEC02F0E552FC0EDBCFF9
:10046000E9FFDB2AFD0EDBCFEAFF01E3DB2AEF50D9
:0E047000E8E1E552E5CFDAFFE7CFD9FF120051
:02047E00D9CFD4
:10048000E6FFDACFE6FFE1CFD9FFE2CFDAFFE652AF
:10049000F20E00016C17ABAC03D06C91ABB06C8169
:1004A000ABB46C85ABB26C87AE50DF6EDF50E552FB
:0C04B000E552E5CFDAFFE7CFD9FF1200DC
:0404BC00D9CFE6FFAF
:1004C000DACFE6FFE1CFD9FFE2CFDAFFACAC04D060
:1004D000AC9000016CB3AC80FD0EDB50AD6EE5520C
:0A04E000E5CFDAFFE7CFD9FF1200E5
:0604EA00FF0EE350046E5A
:1004F000480E01D04C0EE76EE72EFED7E76AE72ED6
:0A050000FED7042EF7D7000012000A
:06050A00000EF36E00EE8E
:1005100000F0080E01D81200EA6002D0EE6AFCD7A3
:0A052000F350E9601200EE6AFCD708
:06052A0013EE00F023EEC9
:1005300000F0F86A019C0EEC01F0AEEC02F05DEC0C
:0605400001F0FBD71200E0
:0A054600FF0EE350E84E1200000023
:0C05500000D000D000D0E82EFAD7120036
:02055C0012008B
:02055E002C1F50
:020000040030CA
:010001000CF2
:0100020019E4
:010003001EDE
:010005008179
:010006008079
:010008000FE8
:00000001FF
