:04000000A5EF3FF039
:107EA8002C1F4D4943524F4348495000FA0E00F0E9
:107EB800E82EFDD70D2EFAD712000EC00DF070EC8B
:107EC8003FF0ACB21200FDD710C00DF011C00EF09B
:107ED8000F6AD2EC3FF01200ACAC03D0AC9013B2F6
:107EE800AC800DC0ADFF120010C00EF011C00FF035
:107EF80091EC3FF0ACB21200FDD70F6E000E106E81
:107F08000F5007D00F6E050E0D6E0F505AEC3FF054
:107F1800102A10500E60F6D71200ACA2FED70EC081
:107F2800D9FF0FC0DAFFDF500D6E70EC3FF00EC0C6
:107F3800D9FF0FC0DAFF0E4A0F2ADF50D8B412005B
:107F4800ECD7136AA80EF66E7E0EF76E000EF86E6A
:107F580000EE01F010EE0CF00900F5CFEEFFE55051
:107F6800E150FAE10001B9EF3FF001C010F002C0A2
:107F780011F068EC3FF0000E116E030E106E78ECF5
:107F88003FF0126EC80E0E6E125081EC3FF0126E6A
:107F9800200E0E6E125061EC3FF0EDD7000EAC6E65
:107FA800000EAB6E0DB0AC880DA202D0AC8CAB8CC1
:107FB8000DB4AC8E0DA602D0AB8801D0AB8A0DB83B
:107FC800AC849E980DBAAB860DAC02D09D8A01D0C8
:107FD8009D9A9E9A0DAE02D09D8801D09D980EC0A4
:107FE800AFFF0F50B06EAC8AAB8E949C948EACB839
:087FF800ACBE01D0948C120014
:020000040020DA
:08000000FFFFFFFFFFFFFFFF00
:020000040030CA
:0E000000040C191EFF8081FF0FC00FE00F409F
:00000001FF
