:04000000C2EF3FF01C
:107F10002C1F9EAAFED7B3EC3FF0120002C001F066
:107F20009DEC3FF0ACB21200FDD704C001F005C0DB
:107F300002F0036AD2EC3FF01200ACAC03D0AC907C
:107F400009B2AC8001C0ADFF120007C004F008C048
:107F500005F095EC3FF089EC3FF0066E06C002F0AC
:107F60008EEC3FF0F8D7F20E0916ABAC03D00990B7
:107F7000ABB00980ABB40984ABB20986AECF01F0D7
:107F800001501200096A100EF66E7F0EF76E000E99
:107F9000F86E0900F5CF07F00900F5CF08F00001F1
:107FA000A5EF3FF0000EAC6E000EAB6E01B0AC88DA
:107FB00001A202D0AC8CAB8C01B4AC8E01A602D075
:107FC000AB8801D0AB8A01B8AC849E9801BAAB866D
:107FD00001AC02D09D8A01D09D9A9E9A01AE02D03A
:107FE0009D8801D09D9802C0AFFF0350B06EAC8A4F
:107FF000AB8E949C948EACB8ACBE01D0948C120025
:020000040020DA
:08000000FFFFFFFFFFFFFFFF00
:020000040030CA
:0E000000040C191EFF8081FF0FC00FE00F409F
:00000001FF
