:020000040000FA
:06000000F3EF01F0120015
:0A0006000100040400006A0000007D
:0400100002000000EA
:0C001400D9CFE6FFE1CFD9FFFD0EDBCF16
:10002000E6FFE66AFE0EDBCFE6FFEBEC00F0E55202
:10003000E552E552E552E7CFD9FF12009EAAFED75E
:10004000ADEC01F000D01200D9CFE6FFE1CFD9FF2F
:10005000FD0EDBCFE6FFFE0EDBCFE6FF87EC01F007
:10006000E552E552ACA2FED7E552E7CFD9FF120028
:10007000D9CFE6FFE1CFD9FF9EAAFED7FC0EDBCF9A
:10008000E6FFFD0EDBCFE6FFFE0EDBCFE6FF30EC3A
:1000900001F0E552E552E552E552E7CFD9FF1200F3
:1000A000D9CFE6FFE1CFD9FFFE0EDBCFE6FFCCECE8
:1000B00001F0E552ACA2FED7E552E7CFD9FF12001E
:1000C000D9CFE6FFE1CFD9FF020EE1260D0EE66E95
:1000D000E7DFE5520A0EE66EE3DFE552DF6AFC0E6B
:1000E000DB50DF5C1FE29EAAFED7ADEC01F0E76EAD
:1000F000010EE7CFDBFFFD0EDBCFE9FFFE0EDBCF0E
:10010000EAFF010EDBCFEFFFDBCFE6FFCCEC01F027
:10011000E552ACA2FED7FD0EDB2AFE0E01E3DB2A80
:10012000DF2ADDD7020EE15C02E2E16AE552E16E10
:08013000E552E7CFD9FF1200F0
:08013800060EF66E000EF76ED4
:10014000000EF86E00010900F550656F0900F550CA
:10015000666F03E1656701D03DD00900F550606F1F
:100160000900F550616F0900F550626F0900090040
:10017000F550E96E0900F550EA6E09000900090022
:10018000F550636F0900F550646F09000900F6CF60
:1001900067F0F7CF68F0F8CF69F060C0F6FF61C094
:1001A000F7FF62C0F8FF0001635302E1645307E008
:1001B0000900F550EE6E6307F8E26407F9D767C0EF
:1001C000F6FF68C0F7FF69C0F8FF00016507000E81
:0601D000665BBFD71200C0
:0A01D600D9CFE6FFDACFE6FFE1CF54
:1001E000D9FFE2CFDAFFAC6AAB6AFD0EDBB0AC88B8
:1001F000DBA202D0AC8CAB8CDBB4AC8EDBA602D025
:10020000AB8801D0AB8ADBB8AC849E98DBBAAB86F6
:10021000DBAC02D09D8A01D09D9A9E9ADBAE02D0C3
:100220009D8801D09D98FB0EDB50AF6EFB0EFC0E3F
:10023000DBCF03F003C002F0036A0250B06EAC8A59
:10024000AB8E949C948EAC50100B04E0AC50800BA1
:1002500001E1948CE552E5CFDAFFE7CFD9FF120038
:10026000D9CFE6FFDACFE6FFE1CFD9FFE2CFDAFF61
:10027000E652E652DF6AFB0EDB50DF5C18E29EAA14
:10028000FED7ADEC01F0E76E010EE7CFDBFFFC0E11
:10029000DBCFE9FFFD0EDBCFEAFF010EDBCFEFFF87
:1002A000FC0EDB2AFD0E01E3DB2ADF2AE4D7E55250
:0E02B000E552E552E5CFDAFFE7CFD9FF1200A5
:0202BE00D9CF96
:1002C000E6FFE1CFD9FFE6526BC0E6FF6AC0E6FF6A
:1002D0000AEC00F0E552E5521EEC00F0DF6E0D0E68
:1002E000DF5C0AE10A0EE66E50EC00F0E5520D0EFE
:1002F000E66E50EC00F0E552DFCFE6FF50EC00F088
:0E030000E552EAD7E552E552E7CFD9FF1200E9
:02030E00D9CF45
:10031000E6FFDACFE6FFE1CFD9FFE2CFDAFFACA20A
:10032000FED7FC0EDBCFE9FFFD0EDBCFEAFFEF507F
:10033000E66ECCEC01F0E552FC0EDBCFE9FFDB2AE8
:10034000FD0EDBCFEAFF01E3DB2AEF50E8E1E552E7
:0A035000E5CFDAFFE7CFD9FF120076
:06035A00D9CFE6FFDACF67
:10036000E6FFE1CFD9FFE2CFDAFFE652F20E00015D
:100370006C17ABAC03D06C91ABB06C81ABB46C853B
:10038000ABB26C87AE50DF6EDF50E552E552E5CF81
:08039000DAFFE7CFD9FF1200EC
:08039800D9CFE6FFDACFE6FF42
:1003A000E1CFD9FFE2CFDAFFACAC04D0AC900001D2
:1003B0006CB3AC80FD0EDB50AD6EE552E5CFDAFFDD
:0603C000E7CFD9FF120097
:0A03C600000EF36E00EE00F0080ECA
:1003D00001D81200EA6002D0EE6AFCD7F350E9605F
:0603E0001200EE6AFCD7DA
:0A03E60013EE00F023EE00F0F86AB9
:1003F000019C9CEC00F001EC02F05FEC01F0FBD7FB
:020400001200E8
:020402001200E6
:020404002C1FAB
:020000040030CA
:010001000CF2
:0100020019E4
:010003001EDE
:010005008179
:010006008079
:010008000FE8
:00000001FF
