:0400000090EF3FF04E
:107EC4002C1F026E02507AEC3FF0ACB21200FDD7C8
:107ED400086E07C001F0026A0850CCEC3FF01200B3
:107EE400016EFA0E00F0E82EFDD7012EFAD712002B
:107EF400016EACAC03D0AC900CB2AC8001C0ADFF51
:107F04001200026E000E036E04D0050E72EC3FF0F8
:107F1400032A0350025CD8A01200F7D70C6AC40EDF
:107F2400F66E7E0EF76E000EF86E0900F5CF0AF0BD
:107F34000900F5CF0BF00001A0EF3FF0410E096EF0
:107F440092800BC007F00A506AEC3FF00A0E63EC13
:107F54003FF00D0E63EC3FF0095063EC3FF0092A4B
:107F6400C80E83EC3FF009505B0AD8A4F5D7200E65
:107F740063EC3FF0610E096E095063EC3FF0092A8F
:107F8400C80E83EC3FF009507B0AD8A4F5D7410E04
:107F9400096EDCD7066E000EAC6E000EAB6E06B03A
:107FA400AC8806A202D0AC8CAB8C06B4AC8E06A610
:107FB40002D0AB8801D0AB8A06B8AC849E9806BACE
:107FC400AB8606AC02D09D8A01D09D9A9E9A06AEDD
:107FD40002D09D8801D09D9801C0AFFF02C003F07C
:107FE40003C004F0056A0450B06EAC8AAB8E949C56
:0C7FF400948EACB8ACBE01D0948C12008E
:020000040020DA
:08000000FFFFFFFFFFFFFFFF00
:020000040030CA
:0E000000040C191EFF8081FF0FC00FE00F409F
:00000001FF
